:020000040800F2
:10000000000002209D3A0008210A0008230A000887
:10001000250A0008270A0008290A00080000000035
:100020000000000000000000000000002B0A000893
:100030002D0A0008000000002F0A0008310A0008FD
:10004000ED3A0008ED3A0008ED3A0008ED3A0008F4
:10005000ED3A0008ED3A0008ED3A0008ED3A0008E4
:10006000ED3A0008ED3A0008ED3A0008390A0008B8
:10007000ED3A0008ED3A0008ED3A0008ED3A0008C4
:10008000ED3A0008ED3A0008ED3A0008ED3A0008B4
:10009000ED3A0008ED3A0008ED3A0008ED3A0008A4
:1000A000ED3A0008ED3A0008ED3A0008ED3A000894
:1000B000ED3A0008ED3A0008ED3A0008ED3A000884
:1000C000ED3A0008ED3A0008ED3A0008ED3A000874
:1000D000ED3A0008ED3A0008ED3A0008ED3A000864
:1000E000490A0008ED3A0008ED3A0008ED3A000828
:1000F000ED3A0008ED3A0008ED3A0008ED3A000844
:10010000ED3A0008ED3A0008ED3A0008ED3A000833
:10011000ED3A0008ED3A0008ED3A0008ED3A000823
:10012000ED3A0008ED3A0008ED3A0008ED3A000813
:10013000ED3A0008ED3A0008ED3A0008ED3A000803
:10014000ED3A0008ED3A0008ED3A0008ED3A0008F3
:10015000ED3A0008ED3A0008ED3A0008ED3A0008E3
:10016000ED3A0008ED3A0008ED3A0008ED3A0008D3
:10017000ED3A0008ED3A0008ED3A0008ED3A0008C3
:10018000ED3A0008ED3A0008ED3A0008ED3A0008B3
:10019000ED3A000800000000ED3A0008ED3A0008D2
:1001A000ED3A0008ED3A0008ED3A0008ED3A000893
:1001B000ED3A0008ED3A0008ED3A0008ED3A000883
:1001C000ED3A0008ED3A0008ED3A0008ED3A000873
:0801D000ED3A0008ED3A0008C9
:1001D80010B5054C237833B9044B13B10448AFF379
:1001E80000800123237010BD0C00002000000000D7
:1001F800483B000808B5034B1BB103490348AFF35C
:10020800008008BD0000000010000020483B0008E6
:1002180053B94AB9002908BF00281CBF4FF0FF3165
:100228004FF0FF3000F074B9ADF1080C6DE904CE61
:1002380000F006F8DDF804E0DDE9022304B07047B9
:100248002DE9F047089E04468846002B40F085803B
:100258008A42154648D9B2FA82F24AB1C2F1200759
:1002680001FA02F320FA07F7954047EA0308944099
:100278004FEA154E230CB8FBFEF71FFA85FC0EFB60
:10028800178843EA084307FB0CF1994209D9EB1890
:1002980007F1FF3080F0E380994240F2E080023FAE
:1002A8002B445B1AA4B2B3FBFEF00EFB103344EAF6
:1002B800034400FB0CFCA44509D92C1900F1FF33B9
:1002C80080F0CB80A44540F2C88002382C4440EA34
:1002D8000740A4EB0C0400271EB1D4400023C6E954
:1002E80000433946BDE8F087002A53D0B2FA82F2BB
:1002F800002A40F0B680491B4FEA154E1FFA85F8D0
:100308000127B1FBFEFC230C0EFB1C1143EA014341
:1003180008FB0CF1994207D9EB180CF1FF3002D217
:10032800994200F2EC808446591AA3B2B1FBFEF060
:100338000EFB101443EA044408FB00F8A04507D953
:100348002C1900F1FF3302D2A04500F2DC801846D8
:10035800A4EB080440EA0C40BEE78B4208D9002E03
:1003680078D00027C6E9000138463946BDE8F0874D
:10037800B3FA83F77FB98B4202D3824200F2BD8081
:10038800841A61EB030301209846002EA9D0C6E920
:100398000048A6E7FFDEC7F12005BB4022FA05FCAE
:1003A8004CEA030C01FA07F420FA05F821FA05F3E0
:1003B8004FEA1C4E48EA0404B3FBFEF9210C0EFB7D
:1003C80019331FFA8CF841EA034309FB08FA9A45E6
:1003D80002FA07F200FA07F10BD91CEB030309F143
:1003E800FF3080F088809A4540F28580A9F10209A3
:1003F8006344A3EB0A03A4B2B3FBFEF00EFB103375
:1004080044EA034400FB08F8A04508D91CEB04049F
:1004180000F1FF336BD2A04569D90238644440EA41
:100428000940A4EB0804A0FB02894C45C6464B468C
:1004380054D351D0002E69D0B1EB0E0264EB030403
:1004480004FA05F522FA07F3FC401D43C6E90054F7
:10045800002746E73746304643E7184637E707465A
:100468001FE7C2F1200320FA03F7954001FA02F0D2
:1004780021FA03F34FEA154E3843010CB3FBFEF79C
:100488001FFA85F80EFB173341EA034107FB08F30F
:100498008B4204FA02F407D9691807F1FF3C28D205
:1004A8008B4226D9023F2944CB1A81B2B3FBFEF016
:1004B8000EFB103341EA034100FB08F38B4207D9D6
:1004C800691800F1FF3C10D28B420ED9023829443A
:1004D800C91A40EA074714E74145ABD2B8EB020E08
:1004E80069EB0C0201381346A4E76046F0E71846AA
:1004F80095E76746D8E781467BE7384645E7ACF19C
:10050800020C2B4410E702382C4421E73746E8E672
:10051800704700BF30B5A9B0382200211AA803F0EF
:1005280007FB0024159416941794189419945422D0
:100538002146684603F0FCFA204603F0ADF9012392
:100548001A934FF480331B9302232193032522959A
:1005580006222392552224922593269327931AA89C
:1005680002F0F8FA0F231593169517941894199416
:10057800082115A802F0A6FD48F201030093019492
:100588004FF000531193684602F0C4FE29B030BD05
:1005980008B502F07DFAFFF7BDFF00F00DF800F096
:1005A80073F900F061F800F00FF900F08FF900F02E
:1005B800CDF9FEE77047000010B58AB00024059415
:1005C8000694079408940994244BDA6C42F00402C8
:1005D800DA64DA6C02F004020192019ADA6C42F0F1
:1005E8002002DA64DA6C02F020020292029ADA6CD3
:1005F80042F00102DA64DA6C02F001020392039A13
:10060800DA6C42F00202DA64DB6C03F00203049352
:10061800049B224620214FF0904000F007FB4FF446
:10062800005305930E4B0693079405A90D4800F057
:100638002DFA20230593012306930794089405A90E
:100648004FF0904000F022FA22462146282003F07D
:10065800BBF9282003F0ECF90AB010BD00100240E5
:10066800000011100008004810B58CB0002409944F
:100678000A940B942022214601A803F059FA29482C
:100688004FF0A043036044608460C46004610123A8
:10069800436104228261047744770222026280F86F
:1006A80024404FF4B462C2624FF48062026380F85F
:1006B8003840C46380F840301C224264802282643F
:1006C800C464036500F0C6FA00BB0023099309A9B6
:1006D800144800F095FEE0B9134B019306230293EA
:1006E800052303937F230493042305930023069390
:1006F80001A90C4800F012FC70B90C23029301A95F
:10070800084800F00BFC50B90CB010BDFFF752FFC1
:10071800DBE7FFF74FFFDFE7FFF74CFFEDE7FFF7FA
:1007280049FFF1E7280000200200300410B588B026
:100738000023039304930593069307930368B3F187
:10074800A04F01D008B010BD044603F1704303F573
:100758000433DA6C42F40052DA64DA6C02F40052C0
:100768000192019ADA6C42F00102DA64DB6C03F060
:1007780001030293029B03230393049303A94FF0FD
:10078800904000F083F90E480E4B03600523436048
:1007980000238360C360802202614FF4807242614B
:1007A8004FF480628261C361036202F0A7FF18B947
:1007B800034B63659C62C5E7FFF7FCFEF8E700BFE3
:1007C800940000200800024000B58DB030220021BE
:1007D800684603F0ADF91148114B036000F008FFBB
:1007E800A8B90223009300228DF804208DF8052073
:1007F8000292039204920592052306930792694692
:10080800064800F007FF28B90DB05DF804FBFFF7B4
:10081800D1FEE6E7FFF7CEFEF6E700BFF4000020C2
:100828000008005000B589B0002303930493059392
:10083800069307930268134B9A4202D009B05DF8F9
:1008480004FB03F1704303F50233DA6C42F480329F
:10085800DA64DA6C02F480320192019ADA6C42F0BE
:100868000102DA64DB6C03F001030293029B10239C
:1008780003930323049303A94FF0904000F006F973
:10088800DCE700BF0008005000B583B00E4B9A6C3F
:1008980042F004029A649A6C02F004020092009AF0
:1008A8009A6C42F001029A649B6C03F00103019375
:1008B800019B002211460B2003F086F80B2003F061
:1008C800B7F803B05DF804FB0010024000B585B02E
:1008D80000230193029303930F48104A0260A92250
:1008E8004260836040F2E732C260836100F0FEFF3D
:1008F80058B9102301930023039301A9064801F076
:100908000FF828B905B05DF804FBFFF753FEF0E7D0
:10091800FFF750FEF6E700BF080100200010004076
:100928000268094B9A4200D0704782B003F5003341
:100938009A6D42F010029A659B6D03F010030193C3
:10094800019B02B0704700BF0010004008B517486F
:10095800174B03604FF4E133436000238360C360A7
:1009680003610C2242618361C36103624362836253
:1009780001F08EFF70B900210C4802F016F860B93A
:1009880000210A4802F036F850B9084801F0EEFF95
:1009980048B908BDFFF70EFEEDE7FFF70BFEEFE7DE
:1009A800FFF708FEF1E7FFF705FEF2E74801002030
:1009B8000038014000B589B00023039304930593E0
:1009C800069307930268124B9A4202D009B05DF869
:1009D80004FB03F558431A6E42F480421A661A6EF5
:1009E80002F480420192019ADA6C42F00402DA645D
:1009F800DB6C03F004030293029B3023039302236E
:100A080004930723079303A9024800F03FF8DDE7A2
:100A180000380140000800487047FEE7FEE7FEE79F
:100A2800FEE770477047704708B502F041F808BD07
:100A380008B5024802F0CEFE08BD00BF94000020B1
:100A480008B54FF4005000F0F7F808BD82B00D4B20
:100A58001A6E42F001021A661A6E02F00102009242
:100A6800009A9A6D42F080529A659B6D03F080530C
:100A78000193019B044A936823F48043936002B076
:100A8800704700BF0010024000700040F0B482B010
:100A9800002336E0052400E00024B4403C4302353E
:100AA8005E4E46F825405E4C2568D44304EA0506A8
:100AB8004F6817F4803F01D042EA0506584D2E6072
:100AC8006D6804EA05064F6817F4003F01D042EA52
:100AD8000506534D6E60AD6804EA05064F6817F4C5
:100AE800801F01D042EA05064D4DAE60ED682C40EE
:100AF8004E6816F4001F01D042EA0504484AD46043
:100B080001330A6832FA03F400F0858001249C401E
:100B18002240F5D04D68022D01D0122D10D1DE08EB
:100B2800083650F826C003F00705AF000F25BD4072
:100B38002CEA050C0D69BD4045EA0C0540F8265025
:100B480006685F000325BD40ED4305EA060C4E68C4
:100B580006F00306BE4046EA0C0606604E6806F13B
:100B6800FF3CBCF1010F03D9112E01D0122E10D178
:100B7800866805EA060CCE68BE4046EA0C06866022
:100B8800466826EA04044E68C6F300169E402643CB
:100B98004660C46825408C68BC402C43C4604C68DF
:100BA80014F0805FACD01F4C256E45F0010525661A
:100BB800246E04F001040194019C9D08AE1C174C9E
:100BC80054F8267003F00304A6000F24B44027EA63
:100BD8000407B0F1904F3FF45FAF134CA04212D01E
:100BE80004F58064A04210D004F58064A0420ED0C1
:100BF80004F58064A0420CD004F58064A0423FF460
:100C080049AF062449E7012447E7022445E70324BE
:100C180043E7042441E702B0F0BC704700000140FC
:100C28000004014000100240000400480AB181613C
:100C3800704781627047704708B5054B5B6903428E
:100C480000D108BD024B5861FFF7F5FFF9E700BF77
:100C58000004014030B583B000230193002800F060
:100C680048810446C36D2BB323689A6812F0005F6D
:100C780005D09A6822F0204222F03F029A6022684A
:100C8800936813F0805F1CD1936823F0104323F01E
:100C98003F0343F080539360974B1B689B09974A27
:100CA800A2FB03239B090193019B53B1019B013BC9
:100CB8000193F9E7FFF73AFD0023236684F85830DB
:100CC800D2E723689A6812F0805F40D1E26D42F063
:100CD8001002E265226E42F00102226601209A6843
:100CE80012F0040F35D00121E26D12F0100F40F020
:100CF800F980002940F0F680E26D22F4817242F01A
:100D08000202E2659A6812F0010F43D1B3F1A04FD5
:100D180021D07B4A93421ED07A4A926812F0010F82
:100D280000F0A3800121784A926812F0010F00F0C8
:100D38009E8001220A437549896811F0010F00F06D
:100D4800988001210A430CBF0122002214E00020F0
:100D5800C5E70021C8E74FF0A042926812F0010FE2
:100D68007FD001226649896811F0010F7BD00121EB
:100D78000A430CBF0122002262B1B3F1A04F7CD01C
:100D88005F4A934277D0624963688A6822F47C128A
:100D980013438B60627FE36B43EA4233E268134399
:100DA800A268134394F8242043EA0243012A66D038
:100DB800E26A22B102F47872216B0A431343216874
:100DC800CD68544A2A401343CB602268136923F044
:100DD8004063616B0B43136123689A6812F0040F38
:100DE80052D001219A6812F0080F4FD0012249BB56
:100DF80042BB217F94F83820520042EA8131DA68F8
:100E080022F4804222F002020A43DA602369002BAE
:100E18003ED02268136943F4803313612268D2F804
:100E2800C03023F47F5323F03F0321690B43C2F8FA
:100E3800C03094F84030012B39D02268136923F070
:100E4800010313616369012B43D02268136B23F0FC
:100E58000F031363E36D23F0030343F00103E3651A
:100E680045E000227EE7002182E700215BE70022BF
:100E780060E7002166E7284986E7274984E7A26AF0
:100E8800013A43EA424393E70021ABE70022AEE789
:100E98002268136923F4803313612268D2F8C030C2
:100EA80023F47F5323F03F03C2F8C030C1E7216821
:100EB8000B6923F4FF6323F00403626CA56C2A43D7
:100EC800E56C2A43256D2A43134343F001030B6164
:100ED800B8E721680B6B23F00F03226A013A13432A
:100EE8000B63B7E7E36D43F01003E365012003B03C
:100EF80030BD0120FBE700BF08000020632D3E0540
:100F08000001005000040050000500500006005089
:100F1800000700500740F0FF00030050F0B482B013
:100F28000022019290F85820012A00F05A820346C4
:100F3800012280F858200668B06810F0040F0AD023
:100F4800DA6D42F02002DA650120002283F8582089
:100F580002B0F0BC70474D680C6830362A0A92001F
:100F680002F00C02B05805F01F051F27AF4020EA19
:100F78000700C4F38464AC402043B0501A689068FA
:100F880010F0040F00F099800124906810F0080F09
:100F980000F095800125002C4FD1002D4DD18C6893
:100FA800B4F1004F00F08D800F681432780E800085
:100FB80000F004001658C7F304574FF0070C0CFA5A
:100FC80007FC26EA0C06BC403443145018684269F2
:100FD80022F0004242614A691C68E068C0F3C1001F
:100FE800400002FA00F00E69042E00F0828060349E
:100FF80054F82670BC4A3A400F6807F0F84738435F
:10100800024342F0004244F826201A680E698869B3
:10101800603252F8264024F08074204342F82600BB
:1010280018680C690A7F012A60D0603050F82420C3
:1010380022F000722A4340F824201868826812F0CF
:10104800010F16D10A68CD68D0F8B040C2F3120675
:1010580024EA060405F01806A44DF5402A40C2F318
:1010680012022243C0F8B020C868A14A904200F09A
:101078009C800A689F490A4200F0AD811968B1F165
:10108800A04F00F048819C48814200F041819B4874
:10109800806800F0E0749A4DAA4200F03E81994DB4
:1010A800AA4200F03A81984DAA4200F06781974D14
:1010B800AA4200F07B81002047E7002465E700256D
:1010C80069E70C681432600E800000F004001658BE
:1010D800C4F30454072707FA04F426EA0404145056
:1010E8001868426942F00042426174E74FF00075A7
:1010F8009BE7226E206EC0F384600A68C2F3120573
:1011080085BBC2F38462904231D01C68626E606E07
:10111800C0F384600A68C2F312056DBBC2F384622F
:1011280090422ED01C68A26EA06EC0F384600A683C
:10113800C2F3120555BBC2F3846290422BD01C68DF
:10114800E26EE06EC0F384600A68C2F312053DBB2C
:10115800C2F3846290427FF470AFE26E22F00042E4
:10116800E2666AE792FAA2F2B2FA82F2CBE7226E5C
:1011780022F000422266C8E792FAA2F2B2FA82F29C
:10118800CEE7626E22F000426266CBE792FAA2F2E4
:10119800B2FA82F2D1E7A26E22F00042A266CEE74E
:1011A80092FAA2F2B2FA82F2D4E71D680A68C2F390
:1011B800120696BB900E013000F01F0009288CBF64
:1011C80000200120002852D09EBB940E0134A406B2
:1011D80004F0F844B6BB900E013000F01F07012060
:1011E800B8400443C6BB920E013202F01F0202EB64
:1011F8004202120522438C681435500E800000F01C
:1012080004002E58C2F304520727974026EA07061F
:1012180004FA02F232432A502BE792FAA2F0B0FA0B
:1012280080F0013000F01F0009288CBF0020012049
:10123800C8E792FAA2F4B4FA84F40134A40604F0DC
:10124800F844C7E792FAA2F0B0FA80F0013000F053
:101258001F070120B840C4E792FAA2F2B2FA82F25C
:10126800013202F01F0202EB42021205C2E7CEB9B8
:10127800940E0134A40604F0F844E6B9900E013047
:1012880000F01F070120B8400443F6B9900E013062
:1012980000F01F0000EB40021E3A120542F00072F7
:1012A8002243A8E792FAA2F4B4FA84F40134A4061B
:1012B80004F0F844E1E792FAA2F0B0FA80F00130C5
:1012C80000F01F070120B840DEE792FAA2F0B0FA5A
:1012D80080F0013000F01F0000EB40021E3A1205BA
:1012E80042F00072DCE700BF00F0FF03FFFF0700D9
:1012F80000007F40000008800001005000070050F7
:10130800000021C31000C090000052C7000084CB29
:1013180000F50070BCE63448BAE610F4000F7FF41C
:10132800C2AEB1F1A04F04D0304A914201D00020A2
:101338000BE6B1F1A04F1DD02D4A914218D02D498E
:1013480044F400048A6822F0E07214438C602A4A4C
:10135800126892092949A1FB0212920902EB420282
:1013680091000191019A3AB1019A013A0192F9E783
:101378001D49E5E71C49E3E70020E6E510F0807F1A
:101388007FF495AEB1F1A04F0ED0194A914209D021
:10139800184944F080748A6822F0E07214438C6023
:1013A8000020D2E51049F4E70F49F2E710F4800F66
:1013B80013D10F4A914212D0B1F1A04F09D00D4874
:1013C80044F48002816821F0E0710A4382600020C1
:1013D800BBE50548F4E70020B7E50020B5E50020A7
:1013E800B3E50220B4E500BF00030050000600503A
:1013F800000100500007005008000020632D3E0542
:1014080090F85820012A00F0E48030B49CB00346DC
:10141800012280F858200268B2F1A04F47D06E48E8
:10142800824247D0002001900198002846D0806869
:1014380010F0040F4BD00124906810F0040F40F016
:10144800B980002C40F0B680B2F1A04F43D0634879
:1014580082423ED0624A0868002867D0906820F42B
:1014680060404C6893F8385044EA45342043906013
:101478001868B0F1A04F30D0584CA0422DD0564833
:10148800806810F0010F4BD00125564CA46814F069
:10149800010F47D001202843534CA46814F0010FD2
:1014A80042D0012420430CBF0120002026E04B48F5
:1014B8000190B9E700F580700190B5E7DA6D42F068
:1014C8002002DA65002283F8582001207AE00024FF
:1014D800B2E7464ABFE7454ABDE74FF0A0408068FB
:1014E80010F0010F18D001243C48806810F0010F5B
:1014F80014D0012020430CBF01200020002864D014
:10150800906820F4716020F00F000C6889680C4323
:1015180020439060002052E00024E5E70020E9E73E
:101528000025B2E70020B6E70024BBE7916821F464
:10153800604191601968B1F1A04F1AD0274CA142BF
:1015480017D02549896811F0010F2FD00125254CA6
:10155800A46814F0010F2BD001212943224CA46860
:1015680014F0010F00D0012001430CBF012100211C
:1015780011E04FF0A041896811F0010F14D0012447
:101588001649896811F0010F00D0012050EA0401C2
:101598000CBF01210021D1B1916821F4716121F0C2
:1015A8000F01916000200AE00446E9E70546CEE70E
:1015B8000146D2E7DA6D42F02002DA650120002206
:1015C80083F858201CB030BC70470020F7E7002093
:1015D800F5E70220704700BF0004005000010050EA
:1015E800000700500005005000060050000300509E
:1015F80070B110B50446037933B10223237100207A
:1016080020610123237110BD4371FFF70BF9F4E743
:10161800012070474379012B00F0F2802DE9F04159
:1016280015460E46044601234371022303718B6855
:10163800042B18D0F369012B5FD02368DF6B05F00A
:1016480010050723AB4027EA0307B36913F0010F1E
:1016580060D113F0020840F0BC807369002B5BD1A5
:101668004FF0010858E072B123685B6B002B25DA54
:1016780001F02AFA0128F7D9236943F00803236106
:1016880003202071A3E001F01FFA074623685B6B73
:1016980013F4004F0BD001F017FAC01B0128F5D93D
:1016A800236943F008032361032020718FE00120A0
:1016B80001F010FA2368726A1A6405E0012001F04B
:1016C80009FA2368726A5A642068826C05F010016E
:1016D80040F2FF338B4022EA0302B36A8B401A437D
:1016E80082642068C36CFF228A4023EA0203F26AFC
:1016F80002FA01F10B43C3649CE721688A6B05F089
:1017080010001F23834022EA0302336A83401343F5
:101718008B6392E74FF00008B3687269134343EA9A
:1017280008034FF48072AA4027EA02073279012A97
:1017380052D04FF0000848EA03034FF40072AA4061
:1017480027EA02077279012A49D04FF0000848EACF
:10175800030827F440473368022B43D01F4308FA95
:1017680005F848EA07072368DF6321680B684FF428
:101778008042AA4023EA02030B6021680B6840F606
:10178800FE72AA4023EA0202F368AB4013430B60DF
:1017980021680B68C022AA4023EA02030B60F268A2
:1017A800C2F3830332699208120202F470621A4388
:1017B8002068036E40F60F71A94023EA010302FA7C
:1017C80005F51D4305660123237100206071BDE8FE
:1017D800F0814FF001089FE74FF48078ABE74FF4B2
:1017E8000078B4E701F06CFD064B984202D947F443
:1017F8000047B4E7044B9842B1D947F48047AEE7B5
:10180800022070470068890900B4C4040368364A96
:10181800904216D0B0F1804F13D0A2F59432904286
:101828000FD002F5806290420BD002F580629042A0
:1018380007D002F59432904203D002F5E05290426C
:1018480003D123F070034A681343274A904222D0F9
:10185800B0F1804F1FD0A2F5943290421BD002F510
:101868008062904217D002F58062904213D002F550
:10187800943290420FD002F5406290420BD002F5AC
:101888008062904207D002F58062904203D002F550
:101898000062904203D123F44073CA68134323F0D3
:1018A80080034A69134303608B68C3620B688362D1
:1018B8000D4B984213D003F5006398420FD003F5FF
:1018C800406398420BD003F58063984207D003F534
:1018D8008063984203D003F50063984201D10B69F5
:1018E8000363012343617047002C0140B0B110B578
:1018F800044690F83D3063B1022384F83D30214618
:1019080051F8040BFFF782FF012384F83D300020D3
:1019180010BD80F83C30FFF703F8EDE70120704771
:1019280090F83C30012B2ED030B4012380F83C30A5
:10193800022380F83D30026853689568134CA24230
:1019480007D004F50064A24203D004F5E054A24293
:1019580003D123F470034C68234323F0007323F06E
:1019680070030C68234325F0800489682143536081
:1019780003689960012380F83D30002380F83C30EB
:10198800184630BC70470220704700BF002C014049
:101998002DE9F048044601688368026913434269E7
:1019A8001343C2691343426E134308689D4A0240B9
:1019B8001A430A602268536823F44053E1680B43D2
:1019C8005360A1692268984B9A4201D0236A19434F
:1019D800936823F06E4323F430630B4393602268CB
:1019E800D36A23F00F03616A0B43D36223688F4ADB
:1019F800934211D08E4A934222D08E4A934238D0D5
:101A08008D4A934260D08D4A934273D0864A93425E
:101A180000F0898010253FE002F55842D2F888206E
:101A280002F00302032A09D8DFE802F0020496064E
:101A3800012531E004252FE008252DE010252BE0B5
:101A480002F5E632D2F8882002F00C020C2A0ED8F1
:101A5800DFE802F0070D0D0D090D0D0D840D0D0DBC
:101A68000B00002518E0042516E0082514E01025D1
:101A780012E002F5E432D2F8882002F03002102A8F
:101A88006ED005D9202A6DD0302A1BD1082503E055
:101A98000AB9002500E01025634A934270D0E36933
:101AA800B3F5004F00F03883082D00F2FA85DFE81F
:101AB80015F08F04DF041D05F8057505F805F80510
:101AC800F805B3051025E7E702F5E232D2F88820D9
:101AD80002F0C002402A47D005D9802A46D0C02A41
:101AE80006D10825D8E70AB90025D5E71025D3E798
:101AF8001025D1E702F5E032D2F8882002F44072CE
:101B0800B2F5807F34D007D9B2F5007F32D0B2F574
:101B1800407F06D10825BFE70AB90025BCE7102594
:101B2800BAE71025B8E702F5C832D2F8882002F4DF
:101B38004062B2F5806F1FD007D9B2F5006F1DD093
:101B4800B2F5406F06D10825A6E70AB90025A3E734
:101B58001025A1E710259FE702259DE702259BE7B1
:101B6800042599E7022597E7042595E7022593E7D9
:101B7800042591E702258FE704258DE702258BE7E9
:101B8800082D00F29185DFE815F009008F0569003E
:101B98008F0587008F058F058F05BE0001F096FB26
:101BA800636AD3B1012B36D0022B36D0032B36D043
:101BB800042B45D0052B45D0062B45D0072B45D007
:101BC800082B45D0092B45D00A2B45D00B2B01D02B
:101BD800012303E04FF4807300E00123B0FBF3F02E
:101BE800002800F06385626802EB4203834200F23A
:101BF8005F85B0EB023F00F25D85082D00F2898217
:101C0800DFE815F0D500870234018702CC0187028E
:101C18008702870223020223E0E70423DEE7062384
:101C2800DCE700BFF369FFCF0080004000380140C7
:101C38000044004000480040004C00400050004074
:101C48000823CBE70A23C9E70C23C7E71023C5E716
:101C58002023C3E74023C1E78023BFE7636A002B43
:101C68006ED0012B6ED0022B6ED0032B6ED0042BBE
:101C78006ED0052B6ED0062B6ED0072B6ED0082B9E
:101C88006ED0092B6ED00A2B6ED00B2B01D0AE482C
:101C9800A6E74FF22440A3E701F0D0F9636AD3B175
:101CA800012B1CD0022B1CD0032B1CD0042B1CD0C6
:101CB800052B1CD0062B1CD0072B1CD0082B1CD0A6
:101CC800092B1CD00A2B1CD00B2B01D0012303E0BD
:101CD8004FF4807300E00123B0FBF3F080E70223A8
:101CE800FAE70423F8E70623F6E70823F4E70A23CC
:101CF800F2E70C23F0E71023EEE72023ECE740237C
:101D0800EAE78023E8E7636A83B3012B31D0022B2B
:101D180032D0032B33D0042B34D0052B35D0062BEF
:101D280036D0072B37D0082B38D0092B39D00A2BBF
:101D38003AD00B2B02D04FF4004051E780204FE7F8
:101D480081484DE781484BE7814849E7814847E7A3
:101D5800814845E7814843E7814841E781483FE7B3
:101D680081483DE781483BE7814839E74FF4004027
:101D780036E74FF4804033E74FF4005030E741F244
:101D880055502DE74FF480502AE740F6CC4027E71E
:101D980040F6AA2024E74FF4006021E74FF4806062
:101DA8001EE74FF400701BE74FF4807018E701F04E
:101DB8008DFA636AE3B1012B3AD0022B3BD0032B97
:101DC8003CD0042B3DD0052B3ED0062B3FD0072B13
:101DD80040D0082B41D0092B42D00A2B43D00B2BE3
:101DE80002D00122002305E04FF48072002301E0B5
:101DF800012200230021FEF70BFA0F0247EA1067C1
:101E080006026268500800252B4616EB000B47F1C6
:101E1800000C58466146FEF7FBF903462846A3F531
:101E28004071544A914200F247842268D36001E32A
:101E380002220023DEE704220023DBE70622002338
:101E4800D8E708220023D5E70A220023D2E70C228C
:101E58000023CFE710220023CCE720220023C9E784
:101E680040220023C6E780220023C3E7636AFBB150
:101E7800012B2DD0022B30D0032B33D0042B36D09E
:101E8800052B39D0062B3CD0072B3FD0082B42D04E
:101E9800092B45D00A2B48D00B2B04D0DFF8D8B03B
:101EA8004FF0000C08E0DFF8A0B04FF0000C03E0A2
:101EB800DFF8C4B04FF0000C560800252B461BEB8A
:101EC80006004CF10001FEF7A3F903462846A6E7F1
:101ED800DFF8A8B04FF0000CEEE7DFF8A4B04FF041
:101EE800000CE9E70FF2500CDCE900BCE4E7DFF88E
:101EF80094B04FF0000CDFE7DFF88CB04FF0000C27
:101F0800DAE70FF23C0CDCE900BCD5E7DFF87CB07F
:101F18004FF0000CD0E7DFF878B04FF0000CCBE7BB
:101F2800DFF870B04FF0000CC6E7DFF86CB04FF088
:101F3800000CC1E7AFF3008000AAB0280000000041
:101F480000555814000000000024F40000127A0024
:101F580000093D00AAB0280080841E00006A18000D
:101F68005558140040420F0020A1070090D00300EC
:101F780048E80100FFFC0F00000024F40000127A7A
:101F88000000093D0080841E00006A180040420FCE
:101F98000020A1070090D0030048E80101F04EF8A6
:101FA800636AE3B1012B32D0022B33D0032B34D038
:101FB800042B35D0052B36D0062B37D0072B38D03D
:101FC800082B39D0092B3AD00A2B3BD00B2B02D047
:101FD8000122002305E04FF48072002301E0012272
:101FE80000230021FEF714F90F0247EA10670602E2
:101FF8006268500800252B4616EB000B47F1000CD1
:1020080058466146FEF704F90346284607E70222C8
:102018000023E6E704220023E3E706220023E0E7A3
:1020280008220023DDE70A220023DAE70C22002336
:10203800D7E710220023D4E720220023D1E740224B
:102048000023CEE780220023CBE7636AFBB1012B94
:102058002DD0022B30D0032B33D0042B36D0052BB8
:1020680039D0062B3CD0072B3FD0082B42D0092B68
:1020780045D00A2B48D00B2B04D04FF4000B4FF05F
:10208800000C08E04FF4004B4FF0000C03E04FF455
:10209800000B4FF0000C560800252B461BEB0600E2
:1020A8004CF10001FEF7B4F803462846B7E64FF4B2
:1020B800800B4FF0000CEEE74FF4001B4FF0000CC4
:1020C800E9E7DFF88CB44FF0000CE4E74FF4801B2D
:1020D8004FF0000CDFE7DFF87CB44FF0000CDAE7D4
:1020E800DFF874B44FF0000CD5E74FF4002B4FF035
:1020F800000CD0E74FF4802B4FF0000CCBE74FF4E7
:10210800003B4FF0000CC6E74FF4803B4FF0000C4B
:10211800C1E70120002382E6082D00F25681DFE89E
:1021280015F00900570096005401CF0054015401DE
:1021380054010E0101F0CAF8636AD3B1012B33D000
:10214800022B33D0032B33D0042B33D0052B33D0C1
:10215800062B33D0072B33D0082B33D0092B33D0A1
:102168000A2B33D00B2B01D0012303E04FF48073EB
:1021780000E00123B0FBF3F06268530803EB40036F
:10218800B3FBF2F39BB20020A3F110014FF6EF72FC
:10219800914200F293829AB222F00F02C3F34203F3
:1021A80013432268D36045E10223E3E70423E1E710
:1021B8000623DFE70823DDE70A23DBE70C23D9E75B
:1021C8001023D7E72023D5E74023D3E78023D1E79F
:1021D80001F08EF8636AD3B1012B24D0022B24D0EE
:1021E800032B24D0042B24D0052B24D0062B24D059
:1021F800072B24D0082B24D0092B24D00A2B24D039
:102208000B2B01D0012303E04FF4807300E001237E
:10221800B0FBF3F06268530803EB4003B3FBF2F33F
:102228009BB20020B0E70223F2E70423F0E706237D
:10223800EEE70823ECE70A23EAE70C23E8E7102394
:10224800E6E72023E4E74023E2E78023E0E7636A48
:10225800CBB1012B20D0022B20D0032B20D0042B74
:1022680020D0052B20D0062B20D0072B20D0082BE0
:1022780020D0092B20D00A2B20D00B2B01D0A84B23
:1022880002E0A84B00E0A64B626803EB5203B3FBE5
:10229800F2F39BB2002077E7A34BF5E7A34BF3E7F4
:1022A800A34BF1E7A34BEFE7A34BEDE7A34BEBE71A
:1022B800A34BE9E7A34BE7E7A34BE5E7A34BE3E72A
:1022C80000F0BCFE636AD3B1012B24D0022B24D0CA
:1022D800032B24D0042B24D0052B24D0062B24D068
:1022E800072B24D0082B24D0092B24D00A2B24D048
:1022F8000B2B01D0012303E04FF4807300E001238E
:10230800B0FBF3F06268530803EB4003B3FBF2F34E
:102318009BB2002038E70223F2E70423F0E7062304
:10232800EEE70823ECE70A23EAE70C23E8E71023A3
:10233800E6E72023E4E74023E2E78023E0E7636A57
:10234800DBB1012B23D0022B24D0032B25D0042B67
:1023580026D0052B27D0062B28D0072B29D0082BD1
:102368002AD0092B2BD00A2B2CD00B2B02D04FF4C0
:10237800803304E04FF4807301E04FF480336268E7
:1023880003EB5203B3FBF2F39BB20020FCE64FF4DD
:102398000043F4E74FF48043F1E742F6AA23EEE75F
:1023A8004FF40053EBE741F69813E8E741F2545332
:1023B800E5E74FF48053E2E74FF40063DFE74FF4BB
:1023C8008063DCE74FF40073D9E701200023DBE6E4
:1023D80000F07CFF636AD3B1012B35D0022B35D0D6
:1023E800032B35D0042B35D0052B35D0062B35D013
:1023F800072B35D0082B35D0092B35D00A2B35D0F3
:102408000B2B01D0012203E04FF4807200E001227F
:10241800B0FBF2F2636802EB5302B2FBF3F292B242
:102428000020A2F110014FF6EF73994200F24881A3
:102438002368DA600122A4F86A20A4F86820002240
:10244800E2662267BDE8F0880222E1E70422DFE7BE
:102458000622DDE70822DBE70A22D9E70C22D7E7C4
:102468001022D5E72022D3E74022D1E78022CFE708
:1024780000F03EFF636AD3B1012B23D0022B23D097
:10248800032B23D0042B23D0052B23D0062B23D0BA
:10249800072B23D0082B23D0092B23D00A2B23D09A
:1024A8000B2B01D0012203E04FF4807200E00122DF
:1024B800B0FBF2F2636802EB5302B2FBF3F292B2A2
:1024C8000020AEE70222F3E70422F1E70622EFE755
:1024D8000822EDE70A22EBE70C22E9E71022E7E7FA
:1024E8002022E5E74022E3E78022E1E7636AC3B3FD
:1024F800012B3FD0022B3FD0032B3FD0042B3FD0E2
:10250800052B3FD0062B3FD0072B3FD0082B3FD0C1
:10251800092B3FD00A2B3FD00B2B1FD0024A21E0BA
:102528000048E80148E801000024F40000127A009D
:102538005461510000093D0000D43000AAB02800C1
:1025480080841E0040420F0020A1070090D00300A5
:102558000055150000CC0C0000AA0A004FF22442D6
:1025680000E0584A636802EB5302B2FBF3F292B2FE
:10257800002056E7544AF5E7544AF3E7544AF1E78E
:10258800544AEFE7544AEDE7544AEBE7544AE9E77F
:10259800544AE7E7544AE5E7544AE3E700F04EFDBA
:1025A800636AD3B1012B23D0022B23D0032B23D072
:1025B800042B23D0052B23D0062B23D0072B23D085
:1025C800082B23D0092B23D00A2B23D00B2B01D087
:1025D800012203E04FF4807200E00122B0FBF2F226
:1025E800636802EB5302B2FBF3F292B2002018E7E1
:1025F8000222F3E70422F1E70622EFE70822EDE7DB
:102608000A22EBE70C22E9E71022E7E72022E5E7B8
:102618004022E3E78022E1E7636AD3B1012B22D0AD
:10262800022B23D0032B24D0042B25D0052B26D016
:10263800062B27D0072B28D0082B29D0092B2AD0E6
:102648000A2B2BD00B2B02D04FF4004203E0802240
:1026580001E04FF40042636802EB5302B2FBF3F26D
:1026680092B20020DDE64FF48042F4E74FF40052C6
:10267800F1E741F25552EEE74FF48052EBE740F6AE
:10268800CC42E8E740F6AA22E5E74FF40062E2E729
:102698004FF48062DFE74FF40072DCE74FF480729A
:1026A800D9E701200022BCE60120C3E60020C1E6EC
:1026B8000120BFE60120BDE60120BBE60120B9E606
:1026C8000120B7E60024F40000127A0000093D005A
:1026D800AAB0280080841E00006A1800555814000B
:1026E80040420F0020A1070090D0030048E80100F5
:1026F800836A13F0010F06D00268536823F400338D
:10270800C16A0B435360836A13F0020F06D0026854
:10271800536823F48033016B0B435360836A13F0CF
:10272800040F06D00268536823F48023416B0B43DF
:102738005360836A13F0080F06D00268536823F4C5
:102748000043816B0B435360836A13F0100F06D06C
:102758000268936823F48053C16B0B439360836AC8
:1027680013F0200F06D00268936823F40053016C1D
:102778000B439360836A13F0400F0AD002685368D2
:1027880023F48013416C0B435360436CB3F5801FF3
:102798000BD0836A13F0800F06D00268536823F4C5
:1027A8000023C16C0B43536070470268536823F4DD
:1027B800C003816C0B435360EBE72DE9F0410546FC
:1027C8000F4616469846069C2B68DB6937EA0303D2
:1027D8000CBF01230023B3421ED1B4F1FF3FF3D055
:1027E80000F072F9A0EB0800A04201D8002CEBD150
:1027F8002A68136823F4D07313602A68936823F057
:10280800010393602023C5F88030C5F88430002385
:1028180085F87C30032000E00020BDE8F08130B569
:1028280083B004460023C0F8883000F04DF905460F
:1028380023681B6813F0080F0ED123681B6813F078
:10284800040F17D12023C4F88030C4F88430002046
:1028580084F87C0003B030BD6FF07E4300930346DC
:1028680000224FF400112046FFF7A7FF0028E4D00C
:102878000320EFE76FF07E4300932B4600224FF4CE
:1028880080012046FFF799FF0028DBD00320E1E70D
:1028980078B310B50446D0F880300BB32423C4F8BD
:1028A80080302268136823F0010313602046FFF785
:1028B8006FF8012813D0A36ABBB92268536823F4C0
:1028C800904353602268936823F02A039360226838
:1028D800136843F0010313602046FFF7A0FF10BD03
:1028E80080F87C30FEF766F8D8E72046FFF700FF4F
:1028F800E3E701207047000010B485B002461A4B88
:1029080093E8030004AC04E903006C46083393E839
:10291800030084E80300536E43B90123A2F86A3028
:10292800A2F8683005B05DF8044B704711688B68F1
:10293800C3F34263886804A901EB507010F8081CBF
:10294800C90010F8100C91FBF0F1A2F86A1004A964
:102958000B4413F8081CC90013F8103C91FBF3F35F
:10296800A2F86830DEE700BF603B000890F87C30D2
:10297800012B18D0012380F87C302423C0F8803044
:1029880003681A68196821F00101196022F00052E1
:102998000023436601680A602022C0F8802080F87E
:1029A8007C30184670470220704738B590F87C3064
:1029B800012B1DD00446012380F87C302423C0F865
:1029C800803003681D681A6822F001021A600268E4
:1029D800936823F0604319439160FFF78DFF2368E4
:1029E8001D602023C4F88030002084F87C0038BDA6
:1029F8000220FCE738B590F87C30012B1DD0044646
:102A0800012380F87C302423C0F8803003681D68D7
:102A18001A6822F001021A600268936823F0606362
:102A280019439160FFF768FF23681D602023C4F8ED
:102A38008030002084F87C0038BD0220FCE70000CC
:102A4800104B1B680BB90120704710B504464FF4B2
:102A58007A70B0FBF3F30C4A1068B0FBF3F000F0A7
:102A6800F5FF68B90F2C01D901200AE000222146A0
:102A78004FF0FF3000F0A8FF044B1C60002000E07E
:102A8800012010BD000000200800002004000020E4
:102A980010B5032000F086FF0020FFF7D1FF10B12A
:102AA8000124204610BD0446FDF7D0FFF9E70000D9
:102AB800034A1368034909680B441360704700BF51
:102AC800D401002000000020014B1868704700BFA7
:102AD800D401002038B50446FFF7F6FF0546B4F1E7
:102AE800FF3F02D0044B1B681C44FFF7EDFF401B5F
:102AF800A042FAD338BD00BF00000020124AD368B4
:102B080003F00303D068C0F303100130032B11D086
:102B18000E4BB3FBF0F30C4AD068C0F3062000FB61
:102B280003F0094BDB68C3F3416301335B00B0FB7F
:102B3800F3F07047064BB3FBF0F3D068C0F3062000
:102B480000FB03F0EDE700BF001002400024F40092
:102B580000366E01002800F0548270B582B0044639
:102B6800036813F0010F37D0B44A936803F00C03DD
:102B7800D26802F003020C2B23D0082B23D0636801
:102B8800B3F5803F4ED0B3F5A02F51D0AB4B1A68A8
:102B980022F480321A601A6822F480221A6063686C
:102BA800002B52D0FFF790FF0546A44B1B6813F487
:102BB800003F11D1FFF788FF401B6428F5D9032097
:102BC80028E2032AD9D19D4B1B6813F4003F03D098
:102BD8006368002B00F01782236813F0020F5DD0A2
:102BE800964A936803F00C03D26802F003020C2B98
:102BF8003AD0042B3AD0E368002B75D08F4A13687B
:102C080043F480731360FFF75FFF05468B4B1B6827
:102C180013F4806F5FD1FFF757FF401B0228F5D9E7
:102C28000320F7E1854A136843F480331360B6E75D
:102C380003F18043A3F53C331A6842F480221A60FA
:102C48001A6842F480321A60A9E7FFF73DFF05468B
:102C58007A4B1B6813F4003FBED0FFF735FF401BCB
:102C68006428F5D90320D5E1022AC2D1734B1B6829
:102C780013F4806F03D0E368002B00F0C6816F4A1D
:102C8800536823F0FE43216943EA016353606C4BA8
:102C98001868FFF7D5FE002840F0B981236813F0C3
:102CA800080F4CD063699BB3644AD2F8943043F060
:102CB8000103C2F89430FFF707FF05465F4BD3F8CE
:102CC800943013F0020F3AD1FFF7FEFE401B0228A2
:102CD800F4D903209EE1594A536823F0FE43216941
:102CE80043EA01635360D9E7544A136823F48073B5
:102CF8001360FFF7E9FE0546504B1B6813F4806F1D
:102D0800CCD0FFF7E1FE401B0228F5D9032081E172
:102D18004A4AD2F8943023F00103C2F89430FFF7FE
:102D2800D3FE0546454BD3F8943013F0020F06D076
:102D3800FFF7CAFE401B0228F4D903206AE1236882
:102D480013F0040F00F081803C4B9B6D13F0805F03
:102D580036D13A4B9A6D42F080529A659B6D03F0DA
:102D680080530193019B0125364B1B6813F4807F28
:102D780028D0A368012B39D0052B3FD02F4BD3F88F
:102D8800902022F00102C3F89020D3F8902022F07E
:102D98000402C3F89020A368002B3DD0FFF794FEEF
:102DA8000646264BD3F8903013F0020F4CD1FFF7AC
:102DB8008BFE801B41F288339842F2D9032029E127
:102DC8000025D1E71F4A136843F480731360FFF7A7
:102DD8007BFE06461B4B1B6813F4807FC9D1FFF7A7
:102DE80073FE801B0228F5D9032013E1134AD2F899
:102DF800903043F00103C2F89030CCE70F4BD3F882
:102E0800902042F00402C3F89020D3F8902042F0BA
:102E18000102C3F89020BEE7FFF756FE0646074BAF
:102E2800D3F8903013F0020F0ED0FFF74DFE801B41
:102E380041F288339842F2D90320EBE000100240B7
:102E48000400002000700040E5B9236813F0200F4B
:102E580035D0A369E3B1774AD2F8983043F001033B
:102E6800C2F89830FFF730FE0546724BD3F8983019
:102E780013F0020F23D1FFF727FE401B0228F4D9D5
:102E88000320C7E06B4A936D23F080539365DCE71A
:102E9800684AD2F8983023F00103C2F89830FFF757
:102EA80013FE0546634BD3F8983013F0020F06D093
:102EB800FFF70AFE401B0228F4D90320AAE0E369C1
:102EC800002B00F0A6805B4A926802F00C020C2AE4
:102ED80069D0022B1DD0574B1A6822F080721A60F5
:102EE800DA6822F00302DA60DA6822F0887222F4E3
:102EF8008032DA60FFF7E8FD04464E4B1B6813F09A
:102F0800007F4ED0FFF7E0FD001B0228F5D9032013
:102F180080E0484A136823F080731360FFF7D4FDFC
:102F28000546444B1B6813F0007F06D0FFF7CCFD25
:102F3800401B0228F5D903206CE03E4AD3683E497D
:102F48001940236A606A013843EA0013A06A43EA19
:102F58000023206B4008013843EA4053606B400867
:102F6800013843EA4063E06A43EAC0630B43D36035
:102F7800136843F080731360D36843F08073D360A1
:102F8800FFF7A2FD04462B4B1B6813F0007F06D108
:102F9800FFF79AFD001B0228F5D903203AE000202C
:102FA80038E0002036E0012B36D0224BDB6803F0F6
:102FB8000301226A914231D103F0F002616A0139BA
:102FC800B2EB011F2CD103F4FE42A16AB2EB012F30
:102FD80028D103F07842E16AB2EBC16F24D103F43F
:102FE800C001226B5208013AB1EB425F1ED103F0D7
:102FF800C063626B5208013AB3EB426F18D10020EC
:1030080008E001207047012004E0012002E00120CF
:1030180000E0002002B070BD0120FBE70120F9E7C5
:103028000120F7E70120F5E70120F3E70120F1E7A8
:103038000120EFE7001002400C809F011E4B9B68A7
:1030480003F00C03042B32D01B4B9B6803F00C03DA
:10305800082B2ED0184B9B6803F00C030C2B01D0C7
:1030680000207047144AD36803F00303D068C0F304
:1030780003100130032B11D0104BB3FBF0F30E4AB1
:10308800D068C0F3062000FB03F00B4BDB68C3F3EA
:10309800416301335B00B0FBF3F07047084BB3FBAF
:1030A800F0F3D068C0F3062000FB03F0EDE7034817
:1030B80070470348704700BF001002400024F40026
:1030C80000366E01002800F0E980F8B50446764B1A
:1030D8001B6803F00F038B420BD2734A136823F06B
:1030E8000F030B431360136803F00F038B4240F088
:1030F800D7800D46236813F0010F61D06368032B56
:103108002FD0022B4DD0694B1B6813F4806F00F051
:10311800C980FFF793FF664B98424FD9634A93687B
:1031280023F0F00343F08003936080275F4A93689D
:1031380023F0030361680B439360FFF7C5FC064661
:103148005A4B9B6803F00C036268B3EB820F38D0CC
:10315800FFF7BAFC801B41F288339842F0D903206C
:103168007BE0524B1B6813F0007F01D1012074E013
:10317800FFF7C4FC4E4B98421AD94C4B9B6813F08E
:10318800F00F05D0236813F0020F13D0A3689BB982
:10319800464A936823F0F00343F080039360802746
:1031A800C4E7424B1B6813F4003FB2D1012054E03E
:1031B8000027BBE70027B9E70027B7E70027B5E7EF
:1031C8000027236813F0020F48D013F0040F04D02F
:1031D800364A936843F4E0639360236813F0080F5A
:1031E80006D0324A936823F47C5343F4E063936037
:1031F8002E4A936823F0F003A1680B4393602A4B8F
:103208001B6803F00F03AB4230D8236813F0040F98
:1032180006D0264A936823F4E063E1680B43936081
:10322800236813F0080F07D0204A936823F46053EB
:10323800216943EAC1039360FFF700FF1B4B9B68BA
:10324800C3F303131B4AD35C03F01F03D8401A4B84
:1032580018601A4B1868FFF7F3FBF8BD002FCED0A3
:10326800124A936823F0F0039360C8E70E4A136884
:1032780023F00F032B431360FFF726FC06460A4B87
:103288001B6803F00F03AB42BFD0FFF71DFC801B88
:1032980041F288339842F2D90320DEE701207047D3
:1032A8000120DAE70120D8E70020024000100240A0
:1032B80000B4C404703B000808000020040000208B
:1032C800014B1868704700BF0800002008B5FFF7D9
:1032D800F7FF054B9B68C3F30223044AD35C03F052
:1032E8001F03D84008BD00BF00100240803B000803
:1032F80008B5FFF7E5FF054B9B68C3F3C223044AF3
:10330800D35C03F01F03D84008BD00BF0010024083
:10331800803B0008F0B583B00446036813F4002F1F
:103328006ED0354B9B6D13F0805F1ED1324B9A6D7A
:1033380042F080529A659B6D03F080530193019B84
:1033480001262E4A136843F480731360FFF7BCFB11
:1033580005462A4B1B6813F4807F08D1FFF7B4FB9E
:10336800401B0228F5D9032502E00026E9E70025DD
:1033780045BB214BD3F8903013F4407315D0226D20
:103388009A4212D01C4AD2F8903023F44073D2F8F3
:10339800901041F48031C2F89010D2F8901021F4C6
:1033A8008031C2F89010C2F8903013F0010F10D19C
:1033B80045B9114AD2F8903023F44073216D0B437C
:1033C800C2F89030EEB10C4A936D23F080539365A8
:1033D80017E0FFF779FB0746074BD3F8903013F057
:1033E800020FE5D1FFF770FBC01B41F2883398420A
:1033F800F2D90325DCE700BF00100240007000404E
:103408000025236813F0010F08D09F4AD2F88830AE
:1034180023F0030361680B43C2F88830236813F074
:10342800020F08D0984AD2F8883023F00C03A1681C
:103438000B43C2F88830236813F0040F08D0924A6F
:10344800D2F8883023F03003E1680B43C2F88830A3
:10345800236813F0080F08D08B4AD2F8883023F07D
:10346800C00321690B43C2F88830236813F0100F9A
:1034780008D0854AD2F8883023F4407361690B4339
:10348800C2F88830236813F0200F08D07E4AD2F89B
:10349800883023F44063A1690B43C2F8883023685D
:1034A80013F0400F08D0784AD2F8883023F44053FC
:1034B800E1690B43C2F88830236813F0800F08D005
:1034C800714AD2F8883023F44043216A0B43C2F88A
:1034D8008830236813F4807F08D06B4AD2F888308C
:1034E80023F44033616A0B43C2F88830236813F42D
:1034F800003F08D0644AD2F89C3023F00303A16A45
:103508000B43C2F89C30236813F4007F08D05E4A4E
:10351800D2F8883023F44023E16A0B43C2F888309C
:10352800236813F4806F0CD0574AD2F8883023F4FC
:103538004013216B0B43C2F88830236BB3F5801F0F
:1035480079D0236813F4006F0CD04F4AD2F8883032
:1035580023F44003616B0B43C2F88830636BB3F507
:10356800800F6DD0236813F4805F0CD0464AD2F8E0
:10357800883023F04073A16B0B43C2F88830A36BEB
:10358800B3F1807F61D0236813F4005F0CD03E4A0A
:10359800D2F8883023F04063E16B0B43C2F88830DF
:1035A800E36BB3F1006F55D0236813F4804F0CD050
:1035B800354AD2F8883023F04063216C0B43C2F8B7
:1035C8008830236CB3F1006F49D0236813F4004F9F
:1035D8000CD02D4AD2F8883023F04053616C0B434D
:1035E800C2F88830636CB3F1805F3DD0236813F470
:1035F800803F0CD0244AD2F8883023F04043A16C95
:103608000B43C2F88830A36CB3F1804F31D02368E4
:1036180013F4802F0CD01C4AD2F89C3023F44013AA
:10362800E16C0B43C2F89C30E36CB3F5001F25D066
:10363800284603B0F0BDD36843F48013D36080E715
:10364800D36843F48013D3608CE7D36843F48013C2
:10365800D36098E7D36843F48013D360A4E7D368B2
:1036680043F48013D360B0E7D36843F48033D36066
:10367800BCE7D36843F48033D360C8E7D36843F426
:103688008013D360D4E700BF0010024003680C4ADF
:10369800934213D80B49DBB2083B0B4AA2FB032326
:1036A800426C22F003020A448264084AC264C3F3EB
:1036B8000413012202FA03F3036570470449EAE799
:1036C8000704024000080240CDCCCCCC8008024060
:1036D800200802400379074A1A4492004265064AC4
:1036E8008265013B03F01F03012202FA03F3C3655D
:1036F800704700BF3F8200104009024000285BD09D
:1037080010B5044601682D4B99423DD82C4B0B440B
:103718002C4AA2FB03231B099B0043642A4B036426
:10372800022384F825300A6822F4FF4222F070024E
:10373800A368E06803432069034360690343A06901
:103748000343E0690343206A034313430B602046A5
:10375800FFF79CFFA368B3F5804F20D0A36C2279B4
:103768001A60E36C226D5A606368013B032B19D918
:1037780000236365A365E3650020E063012384F803
:10378800253084F8240010BD104B0B440D4AA2FBD1
:1037980003231B099B0043640D4B0364C0E700230C
:1037A8006360DBE72046FFF795FF636D00221A6030
:1037B800A36DE26D5A60DFE70120704707040240FD
:1037C800F8FFFDBFCDCCCCCC00000240F8FBFDBF1C
:1037D8000004024038B5036C196804682568436C16
:1037E80003F01F0304229A400A4215D015F0040F73
:1037F80012D0236813F0200F03D1236823F00403A9
:103808002360436C03F01F02016C042393404B6058
:10381800036B03B1984738BD02229A400A421CD074
:1038280015F0020F19D0236813F0200F06D1236872
:1038380023F00A032360012380F82530436C03F04A
:103848001F02016C022393404B60002380F8243050
:10385800C36A002BDFD09847DDE7082202FA03F39A
:103868000B42D8D015F0080FD5D0236823F00E03EB
:103878002360436C03F01F03016C012202FA03F377
:103888004B60C26380F82520002380F82430436B06
:10389800002BC0D09847BEE7002836D13E4B1B68A6
:1038A80003F4C063B3F5806F08D03B4AD2F8803088
:1038B80023F48073C2F8803000207047364AD2F86B
:1038C800803023F48073C2F88030136823F4C06317
:1038D80043F400731360314B1A68322303FB02F37D
:1038E8002F4AA2FB03239B0C013300E0013B2A4A29
:1038F800526912F4806F01D0002BF7D1264B5B6917
:1039080013F4806F44D100207047B0F5007F08D0D1
:10391800214A136823F4C06343F4806313600020D2
:1039280070471D4B1B6803F4C063B3F5806F08D064
:10393800194AD2F8803043F48073C2F880300020EE
:103948007047154AD2F8803043F48073C2F880304B
:10395800136823F4C06343F4007313600F4B1A68B1
:10396800322303FB02F30E4AA2FB03239B0C013311
:1039780000E0013B084A526912F4806F01D0002B25
:10398800F7D1054B5B6913F4806F03D100207047B2
:103998000320704703207047007000400800002093
:1039A80083DE1B43074AD36823F4E0631B041B0C24
:1039B800000200F4E060184340F0BF6040F40030BB
:1039C800D060704700ED00E030B4174BDB68C3F3FC
:1039D8000223C3F10704042C28BF04241D1D062D4F
:1039E80001D9033B00E000234FF0FF3505FA04F44A
:1039F80021EA0401994005FA03F322EA0303194373
:103A0800002809DB0901C9B200F1604000F56140F6
:103A180080F8001330BC704700F00F000901C9B2EC
:103A2800024B1954F6E700BF00ED00E014ED00E08A
:103A3800002807DB00F01F02400901239340024AD7
:103A480042F82030704700BF00E100E00138B0F1D3
:103A5800807F0AD2064B5860064AF02182F823106C
:103A68000020986007221A6070470120704700BF45
:103A780010E000E000ED00E0054BD3F8882042F4A8
:103A88007002C3F888204FF000629A60704700BF48
:103A980000ED00E00D4885460D480E490E4A00230A
:103AA80002E0D458C4500433C4188C42F9D30B4AEA
:103AB8000B4C002301E013600432A242FBD3FFF752
:103AC800DBFF00F011F8FCF763FDFEE700000220C1
:103AD800000000200C000020983B00080C0000208B
:103AE800D8010020FEE7000070B50D4D0D4C641B99
:103AF800A4100026A64209D10B4D0C4C00F020F86A
:103B0800641BA4100026A64205D170BD55F8043BDD
:103B180098470136EEE755F8043B98470136F2E737
:103B2800903B0008903B0008903B0008943B00083D
:103B380002440346934200D1704703F8011BF9E79A
:103B4800F8B500BFF8BC08BC9E467047F8B500BF82
:083B5800F8BC08BC9E46704752
:103B6000010101030701000008040204080101012A
:103B7000000000000000000001020304060708091D
:083B8000000000000102030433
:083B8800C0C6FF7F0100000030
:043B9000FD0100082B
:043B9400D90100084B
:0C3B980001000000100000000024F400F8
:0400000508003A9D18
:00000001FF
